:020000040800F2
:10000000E038002081690008A5640008A7640008A2
:10001000A9640008AB640008AD640008000000009B
:10002000000000000000000000000000A75E0008C3
:10003000AF64000800000000495E0008B5640008D5
:10004000C1690008C5690008C9690008CD690008D0
:10005000D1690008D5690008C5640008DD69000899
:10006000E1690008E5690008E9690008ED69000830
:10007000F1690008F5690008F9690008FD690008E0
:10008000016A0008056A0008096A00080D6A00088C
:10009000116A0008156A0008196A00081D6A00083C
:1000A000216A0008256A0008296A00082D6A0008EC
:1000B000CF640008356A0008396A00083D6A000804
:1000C000416A0008456A0008496A00084D6A00084C
:1000D000516A0008556A0008596A00085D6A0008FC
:1000E000616A0008F5670008696A00086D6A00081F
:1000F000716A0008756A0008796A00087D6A00085C
:10010000816A0008856A0008E76400088D6A0008B3
:10011000916A0008956A0008996A00089D6A0008BB
:10012000A16A000849650008A96A0008AD6A0008CC
:10013000B16A0008B56A0008B96A0008BD6A00081B
:10014000C16A0008C56A0008C96A0008CD6A0008CB
:10015000D16A0008D56A0008D96A0008DD6A00087B
:10016000E16A0008E56A0008E96A0008ED6A00082B
:10017000F16A0008D3640008F96A0008FD6A000803
:10018000016B0008056B0008096B00080D6B000887
:10019000116B0008156B0008196B00081D6B000837
:1001A0004B650008256B00084F65000810B590B03E
:1001B00001F0E1FADFF8D4420421204601F057FCB7
:1001C0000421204601F051FC01F0F9FA00F08AFA0E
:1001D00001214FF0806001F089FC01214FF4000003
:1001E00001F072FC01F04DFB01F0CAFC0020009010
:1001F0000190029003900C900D900E900422072124
:10020000C02001F04FFC4FF4003001F056FC0120FB
:1002100001F050FC3D2001F08DFC0028FAD00920AF
:100220000490012005901D2006900320079040F2C5
:100230000D10089040F24310099040F217100A90F8
:1002400040F247100B9000A801F054FE10B010BD12
:1002500030B591B01E20009040F20D1001900420A6
:10026000029040F24310039002200490FF2005907A
:10027000002006900790089009904FF480600A9043
:1002800005200B9040F2E3100D904FF4F0700E90AB
:100290004FF4A0700F904FF050400C9000A9DFF881
:1002A000E043204601F08BFEDFF8D803DFF8D85397
:1002B0000C9000A94FF4C0600A9007200B902846CC
:1002C00001F07DFE012001F077FE0121204601F0C2
:1002D000C1FE0121284601F0BDFE012001F06CFEA7
:1002E000DFF8A80300F110014160012001F059FE80
:1002F00011B030BD0028DFF8942307BF4FF0504005
:100300000021DFF880030121D16090607047DFF8A1
:100310007C1308807047DFF8741348607047DFF87B
:100320006C0340687047DFF8641389684FF4A022BB
:10033000521E21F8020BFBD170472DE9F047DFF880
:100340004C536E68C0EB0018F08800234FF0010991
:100350004FF0800C98B3A86800EB481000EB410404
:10036000B0884FF0000E08B3B788B2F800A00C2098
:1003700097FBF0F0C0000CFA00F040FA0EF01AEA19
:10038000000F01D10D2F06DB09FA0EF01AEA000F5B
:1003900003D10D2F01DB688800E0288824F8020BC8
:1003A000491CB0880EF1010E8645DDD3B088C0F13E
:1003B000F0004118F0885B1C921C8342CBD3BDE84F
:1003C000F087F0B581B004460D460026DFF8BC7218
:1003D0002878C0B1786881888A1992B28A4212DB83
:1003E000016815F8012BC088203AD2B2504301EBC6
:1003F000400231462046FFF7A0FF786880888619C2
:10040000B6B2F02EE4DB01B0F0BD2DE9F041DFF82B
:100410007C62B5683688534252000024C2F1020261
:100420006718C7EB071CC71A07EB0C1E25F81E60E0
:1004300003EB000E0EEB0C1C25F81C60A1EB040C6A
:10044000CCEB0C180EEB081E25F81E6007EB081706
:1004500025F817601746BC420CDB641C4FEA440CBD
:100460000CF1010C6244C3F1000CA44502D1BB4263
:10047000A8BF0027BB4203DA5B1C5F007F1CBA18D1
:10048000012BCDDBBDE8F081000000000008024038
:100490002DE9F74F50008AB0C0F103090025164638
:1004A000002E66D0BDF82C00801B80B2C0EB00117E
:1004B0004FEA01187548BDF828108068491B18FAE2
:1004C00081F100EB410771480088C40A00F01F0A5F
:1004D000C0F3451B01F0D4FD4FF440300090CDF83F
:1004E0000CB002200190CDF808A004940F200590D4
:1004F0000697EF200790770001200990BFB2089778
:1005000000A801F0CCFD01F018FE022001F01BFE56
:100510000028FAD05D48BDF828108068691818FADC
:1005200081F100EB410859480088C40A00F01F0A15
:10053000C0F3451B01F0A4FD4FF440300090CDF80E
:100540000CB002200190CDF808A004940F20059073
:10055000CDF81880EF20079008970120099000A897
:1005600001F09DFD01F0E9FD022001F0ECFD002805
:10057000FAD0002D66D0BDF82C00401B80B2C0EB35
:1005800000114FEA01184148BDF828108068891B06
:1005900018FA81F100EB41073C480088C40A00F0DA
:1005A0001F0AC0F3451B01F06BFD4FF44030009073
:1005B000CDF80CB002200190CDF808A004940F20D3
:1005C00005900697EF2007906F0001200990BFB2B9
:1005D000089700A801F063FD01F0AFFD022001F0D3
:1005E000B2FD0028FAD02948BDF82810806871189B
:1005F00018FA81F100EB410824480088C40A00F091
:100600001F0AC0F3451B01F03BFD4FF44030009042
:10061000CDF80CB002200190CDF808A004940F2072
:100620000590CDF81880EF200790089701200990D9
:1006300000A801F034FD01F080FD022001F083FDEF
:100640000028FAD0B9F1000F04D509EB850000F1BC
:10065000060905E0A81B09EB800000F10A09761ED7
:100660006D1CAE42BFF41CAFBDF83020BDF82C109D
:10067000BDF82800FFF7C9FE0DB0BDE8F08F0000FF
:1006800084680140000005D0046901403802002060
:1006900070B5044601224FF400510F4801F0E9F90A
:1006A0000E4D0421284601F0E2F90D4E2146304658
:1006B00001F0DEFD0221304601F0DCFD0028F9D01A
:1006C0008021304601F0D6FD0028F9D12846BDE84A
:1006D0007040042101F0C9B9000C0240000802403A
:1006E0000050014070B5074C82B000224FF4005119
:1006F000204601F0BEF9044D0421284601F0B7F967
:10070000024E05E0000C024000080240005001408B
:10071000CA21304601F0ACFD0221304601F0AAFDAD
:100720000028F9D08021304601F0A4FD0028F9D13D
:100730000421284601F099F9C320FFF7A9FF0820FA
:10074000FFF7A6FF5020FFF7A3FF00224FF4005150
:10075000204601F08EF90421284601F088F9CF21C6
:10076000304601F085FD0221304601F083FD00286E
:10077000F9D08021304601F07DFD0028F9D1042117
:10078000284601F072F90020FFF782FFC120FFF731
:100790007FFF3020FFF77CFF00224FF400512046FE
:1007A00001F067F90421284601F061F9ED21304696
:1007B00001F05EFD0221304601F05CFD0028F9D019
:1007C0008021304601F056FD0028F9D10421284649
:1007D00001F04BF96420FFF75BFF0320FFF758FFA0
:1007E0001220FFF755FF8120FFF752FF00224FF440
:1007F0000051204601F03DF90421284601F037F967
:10080000E821304601F034FD0221304601F032FD8E
:100810000028F9D08021304601F02CFD0028F9D1C4
:100820000421284601F021F98520FFF731FF00203F
:10083000FFF72EFF7820FFF72BFF00224FF4005127
:10084000204601F016F90421284601F010F9CB21C9
:10085000304601F00DFD0221304601F00BFD00286D
:10086000F9D08021304601F005FD0028F9D104219E
:10087000284601F0FAF83920FFF70AFF2C20FFF78D
:1008800007FF0020FFF704FF3420FFF701FF0220DD
:10089000FFF7FEFE00224FF40051204601F0E9F878
:1008A0000421284601F0E3F8F721304601F0E0FC8E
:1008B0000221304601F0DEFC0028F9D080213046CC
:1008C00001F0D8FC0028F9D10421284601F0CDF828
:1008D0002020FFF7DDFE00224FF40051204601F0FA
:1008E000C8F80421284601F0C2F8EA21304601F098
:1008F000BFFC0221304601F0BDFC0028F9D0802168
:10090000304601F0B7FC0028F9D10421284601F057
:10091000ACF80020FFF7BCFE0020FFF7B9FE002274
:100920004FF40051204601F0A4F80421284601F0BC
:100930009EF8B121304601F09BFC0221304601F0C7
:1009400099FC0028F9D08021304601F093FC002862
:10095000F9D10421284601F088F80020FFF798FE1D
:100960001B20FFF795FE00224FF40051204601F0B6
:1009700080F80421284601F07AF8B621304601F0CB
:1009800077FC0221304601F075FC0028F9D0802167
:10099000304601F06FFC0028F9D10421284601F00F
:1009A00064F80A20FFF774FEA220FFF771FE002210
:1009B0004FF40051204601F05CF80421284601F074
:1009C00056F8C021304601F053FC0221304601F0B8
:1009D00051FC0028F9D08021304601F04BFC002862
:1009E000F9D10421284601F040F81020FFF750FE0D
:1009F00000224FF40051204601F03BF80421284624
:100A000001F035F8C121304601F032FC02213046B8
:100A100001F030FC0028F9D08021304601F02AFC9A
:100A20000028F9D10421284601F01FF81020FFF713
:100A30002FFE00224FF40051204601F01AF8042145
:100A4000284601F014F8C521304601F011FC0221BE
:100A5000304601F00FFC0028F9D08021304601F02B
:100A600009FC0028F9D10421284600F0FEFF4520AA
:100A7000FFF70EFE1520FFF70BFE00224FF400518A
:100A8000204600F0F6FF0421284600F0F0FFC721C1
:100A9000304601F0EDFB0221304601F0EBFB00286F
:100AA000F9D08021304601F0E5FB0028F9D104217E
:100AB000284600F0DAFF9020FFF7EAFD00224FF40D
:100AC0000051204600F0D5FF0421284600F0CFFF5A
:100AD0003621304601F0CCFB0221304601F0CAFB42
:100AE0000028F9D08021304601F0C4FB0028F9D15C
:100AF0000421284600F0B9FFC820FFF7C9FD0022F5
:100B00004FF40051204600F0B4FF0421284600F0C5
:100B1000AEFFF221304601F0ABFB0221304601F07E
:100B2000A9FB0028F9D08021304601F0A3FB002862
:100B3000F9D10421284600F098FF0020FFF7A8FD16
:100B400000224FF40051204600F093FF0421284674
:100B500000F08DFFB021304601F08AFB02213046C3
:100B600001F088FB0028F9D08021304601F082FB9B
:100B70000028F9D10421284600F077FFC220FFF7B2
:100B800087FD00224FF40051204600F072FF04213F
:100B9000284600F06CFFB621304601F069FB0221C7
:100BA000304601F067FB0028F9D08021304601F083
:100BB00061FB0028F9D10421284600F056FF0A20E5
:100BC000FFF766FDA720FFF763FD2720FFF760FD15
:100BD0000420FFF75DFD00224FF40051204600F095
:100BE00048FF0421284600F042FF2A21304601F048
:100BF0003FFB0221304601F03DFB0028F9D0802167
:100C0000304601F037FB0028F9D10421284600F0D6
:100C10002CFF0020FFF73CFD0020FFF739FD0020EE
:100C2000FFF736FDEF20FFF733FD00224FF40051B0
:100C3000204600F01EFF0421284600F018FF2B215B
:100C4000304601F015FB0221304601F013FB00286D
:100C5000F9D08021304601F00DFB0028F9D10421A4
:100C6000284600F002FF0020FFF712FD01224FF49A
:100C70000051204600F0FDFE0421284600F0F7FE5A
:100C80000021304601F0F4FA0221304601F0F2FA78
:100C90000028F9D08021304601F0ECFA0028F9D183
:100CA0000421284600F0E1FE01224FF400512046C5
:100CB00000F0DFFE0421284600F0D9FE0121304675
:100CC00001F0D6FA0221304601F0D4FA0028F9D01A
:100CD0008021304601F0CEFA0028F9D104212846BF
:100CE00000F0C3FE01224FF40051204600F0C1FE87
:100CF0000421284600F0BBFE3F21304601F0B8FA3F
:100D00000221304601F0B6FA0028F9D080213046A1
:100D100001F0B0FA0028F9D10421284600F0A5FE20
:100D200000224FF40051204600F0A3FE0421284683
:100D300000F09DFEF621304601F09AFA022130467D
:100D400001F098FA0028F9D08021304601F092FA9B
:100D50000028F9D10421284600F087FE01224FF433
:100D60000051204600F085FE0421284600F07FFE59
:100D70000121304601F07CFA0221304601F07AFA76
:100D80000028F9D08021304601F074FA0028F9D10A
:100D90000421284600F069FE01224FF4005120464C
:100DA00000F067FE0421284600F061FE0021304675
:100DB00001F05EFA0221304601F05CFA0028F9D019
:100DC0008021304601F056FA0028F9D10421284646
:100DD00000F04BFE01224FF40051204600F049FE86
:100DE0000421284600F043FE0621304601F040FA77
:100DF0000221304601F03EFA0028F9D08021304629
:100E000001F038FA0028F9D10421284600F02DFE1F
:100E100000224FF40051204600F02BFE042128460A
:100E200000F025FE2C21304601F022FA0221304646
:100E300001F020FA0028F9D08021304601F01AFA9A
:100E40000028F9D10421284600F00FFEC8200090A8
:100E500000200190009801900198A8B10198401ECF
:100E60000190019880B10198401E0190019858B1FD
:100E70000198401E01900198002805D00198401E5D
:100E8000019001980028E9D100224FF4005120463A
:100E900000F0EFFD0421284600F0E9FD2621304650
:100EA00001F0E6F90221304601F0E4F90028F9D01A
:100EB0008021304601F0DEF90028F9D104212846CE
:100EC00000F0D3FD01224FF40051204600F0D1FD87
:100ED0000421284600F0CBFD0121304601F0C8F97D
:100EE0000221304601F0C6F90028F9D080213046B1
:100EF00001F0C0F90028F9D10421284600F0B5FD21
:100F000000224FF40051204600F0B3FD0421284692
:100F100000F0ADFDE021304601F0AAF90221304693
:100F200001F0A8F90028F9D08021304601F0A2F99B
:100F30000028F9D10421284600F097FD01224FF442
:100F40000051204600F095FD0421284600F08FFD59
:100F50000F21304601F08CF90221304601F08AF968
:100F60000028F9D08021304601F084F90028F9D119
:100F70000421284600F079FD01224FF4005120465B
:100F800000F077FD0421284600F071FD292130464C
:100F900001F06EF90221304601F06CF90028F9D019
:100FA0008021304601F066F90028F9D10421284655
:100FB00000F05BFD01224FF40051204600F059FD86
:100FC0000421284600F053FD2421304601F050F959
:100FD0000221304601F04EF90028F9D08021304638
:100FE00001F048F90028F9D10421284600F03DFD20
:100FF00001224FF40051204600F03BFD0421284619
:1010000000F035FD0C21304601F032F90221304666
:1010100001F030F90028F9D08021304601F02AF99A
:101020000028F9D10421284600F01FFD01224FF4C9
:101030000051204600F01DFD0421284600F017FD58
:101040000E21304601F014F90221304601F012F968
:101050000028F9D08021304601F00CF90028F9D1A0
:101060000421284600F001FD01224FF400512046E2
:1010700000F0FFFC0421284600F0F9FC092130466D
:1010800001F0F6F80221304601F0F4F80028F9D01A
:101090008021304601F0EEF80028F9D104212846DD
:1010A00000F0E3FC01224FF40051204600F0E1FC87
:1010B0000421284600F0DBFC4E21304601F0D8F830
:1010C0000221304601F0D6F80028F9D080213046C0
:1010D00001F0D0F80028F9D10421284600F0C5FC21
:1010E00001224FF40051204600F0C3FC04212846A1
:1010F00000F0BDFC7821304601F0BAF802213046FC
:1011000001F0B8F80028F9D08021304601F0B2F89B
:101110000028F9D10421284600F0A7FC01224FF451
:101120000051204600F0A5FC0421284600F09FFC59
:101130003C21304601F09CF80221304601F09AF83B
:101140000028F9D08021304601F094F80028F9D128
:101150000421284600F089FC01224FF4005120466A
:1011600000F087FC0421284600F081FC092130466C
:1011700001F07EF80221304601F07CF80028F9D019
:101180008021304601F076F80028F9D10421284664
:1011900000F06BFC01224FF40051204600F069FC86
:1011A0000421284600F063FC1321304601F060F86A
:1011B0000221304601F05EF80028F9D08021304647
:1011C00001F058F80028F9D10421284600F04DFC20
:1011D00001224FF40051204600F04BFC0421284628
:1011E00000F045FC0521304601F042F8022130466E
:1011F00001F040F80028F9D08021304601F03AF89B
:101200000028F9D10421284600F02FFC01224FF4D8
:101210000051204600F02DFC0421284600F027FC58
:101220001721304601F024F80221304601F022F85F
:101230000028F9D08021304601F01CF80028F9D1AF
:101240000421284600F011FC01224FF400512046F1
:1012500000F00FFC0421284600F009FC1121304663
:1012600001F006F80221304601F004F80028F9D018
:101270008021304600F0FEFF0028F9D104212846E5
:1012800000F0F3FB01224FF40051204600F0F1FB87
:101290000421284600F0EBFB0021304600F0E8FF77
:1012A0000221304600F0E6FF0028F9D080213046C8
:1012B00000F0E0FF0028F9D10421284600F0D5FB1A
:1012C00000224FF40051204600F0D3FB04212846B1
:1012D00000F0CDFBE121304600F0CAFF022130468C
:1012E00000F0C8FF0028F9D08021304600F0C2FF8E
:1012F0000028F9D10421284600F0B7FB01224FF461
:101300000051204600F0B5FB0421284600F0AFFB59
:101310000021304600F0ACFF0221304600F0AAFF69
:101320000028F9D08021304600F0A4FF0028F9D130
:101330000421284600F099FB01224FF40051204679
:1013400000F097FB0421284600F091FB162130465F
:1013500000F08EFF0221304600F08CFF0028F9D00B
:101360008021304600F086FF0028F9D1042128466C
:1013700000F07BFB01224FF40051204600F079FB86
:101380000421284600F073FB1B21304600F070FF5B
:101390000221304600F06EFF0028F9D0802130464F
:1013A00000F068FF0028F9D10421284600F05DFB19
:1013B00001224FF40051204600F05BFB0421284637
:1013C00000F055FB0421304600F052FF0221304668
:1013D00000F050FF0028F9D08021304600F04AFF8D
:1013E0000028F9D10421284600F03FFB01224FF4E8
:1013F0000051204600F03DFB0421284600F037FB59
:101400001121304600F034FF0221304600F032FF57
:101410000028F9D08021304600F02CFF0028F9D1B7
:101420000421284600F021FB01224FF40051204600
:1014300000F01FFB0421284600F019FB072130466D
:1014400000F016FF0221304600F014FF0028F9D00A
:101450008021304600F00EFF0028F9D104212846F3
:1014600000F003FB01224FF40051204600F001FB85
:101470000421284600F0FBFA3121304600F0F8FE46
:101480000221304600F0F6FE0028F9D080213046D7
:1014900000F0F0FE0028F9D10421284600F0E5FA1A
:1014A00001224FF40051204600F0E3FA04212846BF
:1014B00000F0DDFA3321304600F0DAFE022130463A
:1014C00000F0D8FE0028F9D08021304600F0D2FE8E
:1014D0000028F9D10421284600F0C7FA01224FF470
:1014E0000051204600F0C5FA0421284600F0BFFA5A
:1014F0004221304600F0BCFE0221304600F0BAFE28
:101500000028F9D08021304600F0B4FE0028F9D13F
:101510000421284600F0A9FA01224FF40051204688
:1015200000F0A7FA0421284600F0A1FA0521304670
:1015300000F09EFE0221304600F09CFE0028F9D00B
:101540008021304600F096FE0028F9D1042128467B
:1015500000F08BFA01224FF40051204600F089FA86
:101560000421284600F083FA0C21304600F080FE6A
:101570000221304600F07EFE0028F9D0802130465E
:1015800000F078FE0028F9D10421284600F06DFA19
:1015900001224FF40051204600F06BFA0421284646
:1015A00000F065FA0A21304600F062FE0221304662
:1015B00000F060FE0028F9D08021304600F05AFE8D
:1015C0000028F9D10421284600F04FFA01224FF4F7
:1015D0000051204600F04DFA0421284600F047FA59
:1015E0002821304600F044FE0221304600F042FE41
:1015F0000028F9D08021304600F03CFE0028F9D1C7
:101600000421284600F031FA01224FF4005120460F
:1016100000F02FFA0421284600F029FA2F21304645
:1016200000F026FE0221304600F024FE0028F9D00A
:101630008021304600F01EFE0028F9D10421284602
:1016400000F013FA01224FF40051204600F011FA85
:101650000421284600F00BFA0F21304600F008FE66
:101660000221304600F006FE0028F9D080213046E5
:1016700000F000FE0028F9D10421284600F0F5F919
:1016800000224FF40051204600F0F3F904212846CF
:1016900000F0EDF91121304600F0EAFD022130465C
:1016A00000F0E8FD0028F9D08021304600F0E2FD8E
:1016B0000028F9D10421284600F0D7F9C82001906C
:1016C00000200090019800900098A8B10098401E5A
:1016D0000090009880B10098401E0090009858B18A
:1016E0000098401E00900098002805D00098401EE9
:1016F000009000980028E9D100224FF400512046C4
:1017000000F0B7F90421284600F0B1F9292130464C
:1017100000F0AEFD0221304600F0ACFD0028F9D00B
:101720008021304600F0A6FD0028F9D1042128468A
:1017300000F09BF900224FF40051204600F099F987
:101740000421284600F093F92C21304600F090FD4A
:101750000221304600F08EFD0028F9D0802130466D
:1017600000F088FD0028F9D1284602B0BDE870409D
:10177000042100F07AB910B582B001210C2000F0EC
:10178000A3F90420009002208DF8050001208DF8B7
:1017900004000020ADF8060000A9914C204600F09E
:1017A0002BF94FF40050009000A98C4800F024F968
:1017B00001220421204600F05CF902B010BD30B5D2
:1017C00087B00121202000F07FF901214FF4801023
:1017D00000F08CF98020009001208DF80500022097
:1017E0008DF8040000208DF8060002208DF8070017
:1017F00000A97D4C204600F0FFF84FF48070009067
:1018000000A9204600F0F8F84FF40075009500A9F3
:10181000204600F0F1F805220721204600F02EF9BD
:1018200005220821204600F029F905220921204639
:1018300000F024F96B4C204600F094FC2088400610
:101840001DD40020ADF8080002A94FF48270ADF855
:101850000A0000200390ADF81000ADF812501820D7
:10186000ADF814000020ADF816000720ADF8180000
:10187000204600F0CBFC0121204600F0EFFC07B031
:1018800030BD10B582B001216F2000F01DF9574C1A
:101890000E220321204600F0F1F80E2204212046FA
:1018A00000F0ECF80E220621204600F0E7F80E22A8
:1018B0000B21204600F0E2F80E220C21204600F019
:1018C000DDF841F65800009000A902208DF80500CF
:1018D0008DF804000020ADF80600204600F08CF8DA
:1018E000434C09220021204600F0C8F809220121BA
:1018F000204600F0C3F80E220821204600F0BEF872
:101900000E220921204600F0B9F80E220A212046B5
:1019100000F0B4F80E220B21204600F0AFF840F69C
:101920000370009000A9204600F066F82C4C0E22AF
:101930000621204600F0A2F80E220721204600F0E2
:101940009DF80E220A21204600F098F84FF4986086
:10195000009000A9204600F04FF8204C0E220321F1
:10196000204600F08BF80E220621204600F086F873
:101970004820009000A9204600F03EF81A4C0E22A4
:101980000A21204600F07AF84FF48060009000A908
:10199000204600F031F8174C0E220621204600F0B8
:1019A0006DF80E220721204600F068F809220A216E
:1019B000204600F063F80E220B21204600F05EF86E
:1019C00009220C21204600F059F84FF4E65000900F
:1019D00000A9204600F010F802B010BD000C024033
:1019E0000008024000500140001402400000024084
:1019F0000004024000180240F0B400220023012439
:101A00000D6894402540A54229D103259D400668D4
:101A1000ED432E40066006680F799F403E43066006
:101A20000E79012E18BF022E11D186682E408660D5
:101A300086684F799F403E438660466826EA0404E4
:101A4000446044688E799640B6B234434460C468BA
:101A50002C40C460C468CD799D402C43C460521CA6
:101A60009B1C102ACBD3F0BC704701837047418385
:101A700070470AB10183704741837047CB0800EB80
:101A8000830001F007018900036A4FF00F0C0CFA84
:101A900001FC23EA0C03036202FA01F1036A194311
:101AA00001627047090641EA80102C4940EA027041
:101AB000086070472A49086070472A490A6822F47A
:101AC0004032104308607047274A0029116814BF4C
:101AD000084321EA000010607047244A0029116879
:101AE00014BF084321EA000010607047204A002913
:101AF000116814BF084321EA0000106070471D4AB6
:101B00000029116814BF084321EA000010607047E3
:101B1000194A0029116814BF084321EA0000106027
:101B20007047164A0029116814BF084321EA0000D3
:101B3000106070474109084A012908BF116803D0A5
:101B400002290CBF116F516F00F01F0021FA00F045
:101B500000F0010070470000003802408838024061
:101B6000700047428C38024030380240383802401A
:101B700044380240103802402038024024380240E5
:101B800000B593B000F030F801210120FFF7A5FF68
:101B9000022000900720019004200290072003906B
:101BA00002200490059006900120079000200890E4
:101BB0000420099010200A9040200B904FF4C07030
:101BC0000C9000200D904FF400600E9000200F90BC
:101BD0004FF40050109000A8119007A800F062FB8D
:101BE00000F0FEF813B000BD10B582B001217E20D8
:101BF000FFF76AFF02208DF804008DF80500002031
:101C0000ADF806000C22B44C05212046FFF736FF44
:101C10000C2206212046FFF731FF6020009000A92A
:101C20002046FFF7E9FEAD4C0C2200212046FFF7CD
:101C300025FF0120009000A92046FFF7DDFEA84CFB
:101C40000C2200212046FFF719FF0C22012120461B
:101C5000FFF714FF0C2208212046FFF70FFF0C228C
:101C600009212046FFF70AFF0C220A212046FFF730
:101C700005FF0C220E212046FFF700FF0C220F214A
:101C80002046FFF7FBFE4CF20370009000A92046AF
:101C9000FFF7B2FE934C0C2200212046FFF7EEFE28
:101CA0000C2201212046FFF7E9FE0C2207212046E5
:101CB000FFF7E4FE0C2208212046FFF7DFFE0C228E
:101CC00009212046FFF7DAFE0C220A212046FFF701
:101CD000D5FE0C220B212046FFF7D0FE0C220C2152
:101CE0002046FFF7CBFE0C220D212046FFF7C6FE53
:101CF0000C220E212046FFF7C1FE0C220F212046A8
:101D0000FFF7BCFE4FF68370009000A92046FFF756
:101D100073FE754C0C2200212046FFF7AFFE0C220B
:101D200001212046FFF7AAFE0C2202212046FFF7E0
:101D3000A5FE0C2203212046FFF7A0FE0C22042161
:101D40002046FFF79BFE0C2205212046FFF796FE5A
:101D50000C220B212046FFF791FE0C221146204653
:101D6000FFF78CFE0C220D212046FFF787FE0C2288
:101D70000E212046FFF782FE0C220F212046FFF79E
:101D80007DFE4FF63F00009000A92046FFF734FE8D
:101D9000564C0C2200212046FFF770FE0C22012138
:101DA0002046FFF76BFE0C2204212046FFF766FE5B
:101DB0000C2205212046FFF761FE0C220821204657
:101DC000FFF75CFE0C220F212046FFF757FE48F27A
:101DD0003310009000A92046FFF70EFE02B010BDA0
:101DE00000B587B0012001900820029001200390E7
:101DF000002004902021012000F0C1FA0028F9D130
:101E000001A800F0A9FA0A200590002000903849A6
:101E10000598484300900098A8B10098401E009093
:101E2000009880B10098401E0090009858B100982A
:101E3000401E00900098002805D00098401E009099
:101E400000980028E9D1022001900820029001208A
:101E50000390002004902021012000F090FA002837
:101E6000F9D101A800F078FA03200190082002902F
:101E700004200390002004902021012000F07FFA2C
:101E80000028F9D101A800F067FA2021012000F014
:101E900076FA0028F9D101A800F05EFA042001903A
:101EA000082002900120039040F23120049020216C
:101EB000012000F064FA0028F9D101A800F04CFAE2
:101EC00040F26A5000F055FA2021012000F057FA44
:101ED0000028F9D107B000BD00040240000802400C
:101EE000000C0240001002400014024000180240A2
:101EF000A086010030B4DFF87011DFF870210B68A4
:101F000013400B600B680469456945EA04442343A8
:101F10000B604B6813404B604B688469C56945EAA8
:101F2000044423434B608B6813408B608B68046AC6
:101F3000456A45EA044423438B60CB681A40CA6073
:101F4000CA68836AC46A44EA03431A43CA60DFF872
:101F500020310A691A400A610A6903684468234308
:101F600084682343C46823431A430A61036B426BAA
:101F70004C6A04F07F444C621B044C6A806B43EA59
:101F8000022210432043486230BC7047DFF8E4105F
:101F90000028086812BF40F00100400840000860B7
:101FA0007047DFF8D0100028086814BF40F4803074
:101FB00020F48030086070472F490860704730B4C3
:101FC0004A68436803F4704343600B6843EA024283
:101FD0004260CA68836803F4704383608B6843EA95
:101FE000024282600269D208D20002610A6902617B
:101FF0000B6ACA694C6A8569002585618D6945EA65
:10200000022242EA034242EA046282611B4B4269B5
:10201000120A120242614A694261C2691A40C261EF
:10202000CB6A8A6A1A43C261826A002282620A6BA0
:1020300082628A6BC36A03F0E023C3624B6B43EA9C
:102040000242C262026BD20AD2020263C96B01630E
:1020500030BC70470029016812BF41F001014908F6
:1020600049000160704700000868014000F800F076
:102070008F88FE0F1868014024680140F8F8FFFFC0
:1020800000B581B001214FF40000FFF738FD01B029
:102090005DF804EB00214FF40000FFF730BD30B4D1
:1020A0002D492E4C0B6823400B6000220B680468FE
:1020B00023430B604B6BDB08DB004B634B6B4468CB
:1020C00023434B63C4680369456825B94269240208
:1020D0001B04120613E0012D02D124021B040EE0A2
:1020E000022D02D16401DB0209E04269032D03D114
:1020F00064019B02D20302E024011B0212038D6BD8
:102100002343846823431A432A438A638269CA6348
:102110000A6C920B92030A640A6CC3691A430A643C
:10212000426A4B6C03F040434B644B6C006A40EADC
:1021300002401843486430BC70470748016841F0CA
:10214000010101607047064A12680021024218BF6F
:10215000012108467047000000B00240FCE0FCFF8F
:1021600004B0024000B53749884281B008D101214E
:102170004FF48050FFF7D5FC00214FF480503EE033
:102180003149884208D101214FF48040FFF7C0FC5B
:1021900000214FF480400AE02C4988420CD10121F3
:1021A0004FF40040FFF7B4FC00214FF4004001B0B1
:1021B0005DF804EBFFF7ACBC2549884208D101214A
:1021C0004FF40050FFF7ADFC00214FF4005016E033
:1021D0002049884208D101214FF48010FFF7A1FC6B
:1021E00000214FF480100AE01B4988420CD10121E4
:1021F0004FF40010FFF795FC00214FF4001001B0E0
:102200005DF804EBFFF78DBC01B000BD02880B88C0
:1022100002F441521A434B881A438B881A43CB88E5
:102220001A430B891A434B891A438B891A43CB896A
:102230001A4302804FF2FF73828B1A408283098A0D
:10224000018270470030014000380040003C0040EF
:102250000034014000500140005401400029018831
:1022600012BF41F040014FF6BF721140018070472C
:102270008181704700890022084218BF0122104660
:10228000704750F8041B61B150F8042BD30744BFCA
:10229000A9F101039A180023091F42F8043BFAD15F
:1022A000EFE7704770B444688568416A026AC369A1
:1022B00006682C43C5682C4305692C4345692C43AB
:1022C00085692C431C43144341EA0405374C0EB97D
:1022D000256005E01A4311432160016844F821504C
:1022E000816A0268E2B908684A68401E521E40EAE4
:1022F00002108A68521E40EA0220CA68521E40EA52
:1023000002300A69521E40EA02404A698969521E37
:1023100040EA0250491E40EA0160A06070BC70476C
:102320000A684B68521E5B1E42EA03128B685B1EF2
:1023300042EA03220B695B1E42EA0342CB68496909
:10234000491E5B1E090541EA0331A1600068184976
:1023500041F8202070BC70470168426811438268D0
:10236000C068521E41EA421141EA4020114908600A
:10237000704711490A6842EA40000860704700222D
:102380000E4B102808BF18680AD0B0F5807F08BF30
:10239000186A05D0B0F5805F0CBF186CD3F8F40054
:1023A0000840884208BF012210467047400100A043
:1023B000480100A0500100A0540100A0640000A04A
:1023C000000000000000000000000000000000000D
:1023D00000000000000000000000000000000000FD
:1023E00000000000000000000000000000000000ED
:1023F0000000800180018001800180018001800156
:1024000080018001800180018001800100000000C6
:1024100080018001000000000000000000000000BA
:1024200000000000CC00CC00CC00CC00CC00CC00E4
:10243000000000000000000000000000000000009C
:10244000000000000000000000000000000000008C
:10245000000000000000000000000000600C600CA4
:10246000600C30063006FE1FFE1F300638071803CA
:10247000FE1FFE1F180318038C018C018C01000045
:1024800000008000E003F80F9C0E8C1C8C188C0060
:102490009800F801E007800E801C8C188C189C189E
:1024A000B80CF00FE0038000800000000000000086
:1024B0000000000000000E181B0C110C1106110684
:1024C000110311039B018E01C038C06C604460444D
:1024D000304430441844186C0C38000000000000F0
:1024E0000000E001F0033807180618063003F00179
:1024F000F000F8009C310E33061E061C061C063F39
:10250000FC73F0210000000000000000000000004B
:10251000000000000C000C000C000C000C000C0073
:1025200000000000000000000000000000000000AB
:10253000000000000000000000000000000000009B
:102540000000000200038001C000C00060006000C5
:1025500030003000300030003000300030003000FB
:1025600060006000C000C0008001000300020000A5
:10257000000020006000C000800180010003000313
:10258000000600060006000600060006000600061B
:102590000003000380018001C000600020000000F3
:1025A000000000000000000000000000C000C000AB
:1025B000D806F807E00130033807000000000000EB
:1025C000000000000000000000000000000000000B
:1025D00000000000000000000000000080018001F9
:1025E000800180018001FC3FFC3F8001800180016F
:1025F00080018001000000000000000000000000D9
:1026000000000000000000000000000000000000CA
:1026100000000000000000000000000000000000BA
:102620000000800180010001000180000000000026
:10263000000000000000000000000000000000009A
:102640000000000000000000E007E00700000000BC
:10265000000000000000000000000000000000007A
:10266000000000000000000000000000000000006A
:10267000000000000000000000000000000000005A
:102680000000C000C00000000000000000000000CA
:102690000000000C000C000600060006000300030A
:1026A00000038003800180018001C000C000C000E1
:1026B000600060000000000000000000000000005A
:1026C0000000E003F007380E180C0C180C180C185A
:1026D0000C180C180C180C180C180C18180C380EB8
:1026E000F007E00300000000000000000000000010
:1026F000000000018001C001F00198018801800103
:1027000080018001800180018001800180018001C1
:1027100080018001000000000000000000000000B7
:102720000000E003F80F180C0C180C180018001823
:10273000000C000600038001C0006000300018009B
:10274000FC1FFC1F00000000000000000000000053
:102750000000E001F807180E0C0C0C0C000C000631
:10276000C003C007000C001800180C180C18180C37
:10277000F807E00300000000000000000000000077
:102780000000000C000E000F000F800DC00C600C4C
:10279000600C300C180C0C0CFC3FFC3F000C000CC7
:1027A000000C000C00000000000000000000000011
:1027B0000000F80FF80F180018000C00EC03FC07DD
:1027C0001C0E001C0018001800180C181C0C180E09
:1027D000F807E00300000000000000000000000017
:1027E0000000C007F00F381C181818000C00CC03AC
:1027F000EC0F3C0E1C1C0C180C180C18181C380E76
:10280000F007E003000000000000000000000000EE
:102810000000FC1FFC1F000C0006000600038003E4
:102820008001C001C000E000600060007000300066
:102830003000300000000000000000000000000038
:102840000000E003F007380E180C180C180C3806BE
:10285000F007F007180C0C180C180C180C18380C92
:10286000F80FE0030000000000000000000000007E
:102870000000E003F007380E1C0C0C180C180C18A4
:102880001C1C381EF81BE0190018000C000C1C0E54
:10289000F807F00100000000000000000000000048
:1028A0000000000000000000000000008001800126
:1028B0000000000000000000000000000000000018
:1028C0008001800100000000000000000000000006
:1028D00000000000000000000000000080018001F6
:1028E00000000000000000000000000000000000E8
:1028F0008001800100010001800000000000000054
:1029000000000000000000000000000000000000C7
:102910000010001C800FE003F8001800F800E0032E
:10292000800F001C001000000000000000000000EC
:102930000000000000000000000000000000000097
:10294000F81F000000000000F81F00000000000059
:102950000000000000000000000000000000000077
:102960000000000000000000000000000000000067
:1029700008003800F001C007001F0018001FC00742
:10298000F001380008000000000000000000000016
:102990000000E003F80F180C0C180C180018000CBD
:1029A000000600038001C000C000C000000000005D
:1029B000C000C00000000000000000000000000097
:1029C00000000000E00718180420C229224A114420
:1029D00009440944094409221113E20C024004206D
:1029E0001818E007000000000000000000000000D0
:1029F000000080038003C006C006C006600C600CA7
:102A0000301830183018F83FF83F1C700C600C601C
:102A100006C006C00000000000000000000000002A
:102A20000000FC03FC0F0C0C0C180C180C180C0C00
:102A3000FC07FC0F0C180C300C300C300C300C1850
:102A4000FC1FFC0700000000000000000000000068
:102A50000000C007F01F38381C300C7006600600FC
:102A60000600060006000600060006600C701C301A
:102A7000F01FE00700000000000000000000000060
:102A80000000FE03FE0F060E06180618063006307C
:102A90000630063006300630063006180618060ED8
:102AA000FE0FFE0300000000000000000000000018
:102AB0000000FC3FFC3F0C000C000C000C000C0064
:102AC000FC1FFC1F0C000C000C000C000C000C0088
:102AD000FC3FFC3F00000000000000000000000080
:102AE0000000F83FF83F1800180018001800180000
:102AF000F81FF81F18001800180018001800180018
:102B00001800180000000000000000000000000095
:102B10000000E00FF83F3C780E6006E007C00300BD
:102B2000030003FE03FE03C007C006C00EC03CF056
:102B3000F83FE00F0000000000000000000000006F
:102B400000000C300C300C300C300C300C300C30E1
:102B5000FC3FFC3F0C300C300C300C300C300C3097
:102B60000C300C30000000000000000000000000ED
:102B700000008001800180018001800180018001CE
:102B8000800180018001800180018001800180013D
:102B90008001800100000000000000000000000033
:102BA00000000006000600060006000600060006FB
:102BB000000600060006000600061806180638077C
:102BC000F003E00100000000000000000000000031
:102BD000000006300618060C060606038601C6002D
:102BE00066007600DE008E0106030606060C061857
:102BF0000630066000000000000000000000000039
:102C0000000018001800180018001800180018001C
:102C100018001800180018001800180018001800F4
:102C2000F81FF81F00000000000000000000000076
:102C300000000EE01EF01EF01EF036D836D836D852
:102C400036D866CC66CC66CCC6C6C6C6C6C6C6C6B0
:102C500086C386C3000000000000000000000000E2
:102C600000000C301C303C303C306C306C30CC30D0
:102C7000CC308C310C330C330C360C360C3C0C3C09
:102C80000C380C30000000000000000000000000C4
:102C90000000E007F81F1C380E70066003C003C078
:102CA00003C003C003C003C003C006600E701C381D
:102CB000F81FE00700000000000000000000000016
:102CC0000000FC0FFC1F0C380C300C300C300C30AA
:102CD0000C18FC1FFC070C000C000C000C000C0076
:102CE0000C000C00000000000000000000000000CC
:102CF0000000E007F81F1C380E70066003E003C0F8
:102D000003C003C003C003C007E006630E3F1C3CC2
:102D1000F83FE0F700C000000000000000000000E5
:102D20000000FE0FFE1F063806300630063006385B
:102D3000FE1FFE0706030606060C061806180630D8
:102D400006300660000000000000000000000000E7
:102D50000000E003F80F1C0C0C180C180C001C00F1
:102D6000F803E00F001E0038063006300E301C1C41
:102D7000F80FE00700000000000000000000000065
:102D80000000FE7FFE7F80018001800180018001C4
:102D9000800180018001800180018001800180012B
:102DA0008001800100000000000000000000000021
:102DB00000000C300C300C300C300C300C300C306F
:102DC0000C300C300C300C300C300C300C3018182F
:102DD000F81FE007000000000000000000000000F5
:102DE000000003600630063006300C180C180C1872
:102DF000180C180C380E300630067007600360039C
:102E0000C001C00100000000000000000000000040
:102E100000000360C361C361C36166336633663318
:102E20006633663366336C1B6C1B6C1B2C1A3C1EA2
:102E3000380E380E00000000000000000000000006
:102E400000000FE00C7018303018700C600EC007D6
:102E500080038003C003E006700C301C18180C308F
:102E60000E6007E00000000000000000000000000D
:102E7000000003C006600C301C383818300C6006A7
:102E8000E007C00380018001800180018001800192
:102E90008001800100000000000000000000000030
:102EA0000000FC7FFC7F006000300018000C000672
:102EB00000038001C0006000300018000C00060014
:102EC000FE7FFE7F00000000000000000000000008
:102ED0000000E003E003600060006000600060004C
:102EE00060006000600060006000600060006000E2
:102EF00060006000600060006000E003E00300002C
:102F0000000030003000600060006000C000C000C1
:102F1000C000C001800180018001000300030003A4
:102F20000006000600000000000000000000000095
:102F30000000E003E00300030003000300030003BC
:102F40000003000300030003000300030003000369
:102F500000030003000300030003E003E00300009C
:102F600000000000C001C001600360036003300680
:102F70003006180C180C00000000000000000000D3
:102F80000000000000000000000000000000000041
:102F90000000000000000000000000000000000031
:102FA0000000000000000000000000000000000021
:102FB0000000FFFFFFFF0000000000000000000015
:102FC00000000C000C000C000C000C000C000000B9
:102FD00000000000000000000000000000000000F1
:102FE00000000000000000000000000000000000E1
:102FF000000000000000000000000000F003F807DF
:103000001C0C0C0C000FF00FF80C0C0C0C0C1C0F13
:10301000F80FF018000000000000000000000000A1
:10302000000018001800180018001800D803F80F46
:10303000380C181818181818181818181818380CE8
:10304000F80FD8030000000000000000000000009E
:10305000000000000000000000000000C003F007B6
:10306000300E180C1800180018001800180C300E3C
:10307000F007C00300000000000000000000000096
:10308000000000180018001800180018C01BF01FDE
:10309000301C181818181818181818181818301C78
:1030A000F01FC01B00000000000000000000000036
:1030B000000000000000000000000000C003F00F4E
:1030C000300C1818F81FF81F180018003818301C9A
:1030D000F00FC0070000000000000000000000002A
:1030E0000000800FC00FC000C000C000F007F00754
:1030F000C000C000C000C000C000C000C000C000D0
:10310000C000C0000000000000000000000000003F
:10311000000000000000000000000000E00DF80FBB
:10312000180E0C0C0C0C0C0C0C0C0C0C0C0C180EC3
:10313000F80FE00D000C0C0C1C06F807F001000065
:10314000000018001800180018001800D807F80F21
:10315000381C1818181818181818181818181818CB
:1031600018181818000000000000000000000000FF
:103170000000C000C000000000000000C000C0004F
:10318000C000C000C000C000C000C000C000C0003F
:10319000C000C000000000000000000000000000AF
:1031A0000000C000C000000000000000C000C0001F
:1031B000C000C000C000C000C000C000C000C0000F
:1031C000C000C000C000C000C000F80078000000CF
:1031D00000000C000C000C000C000C000C0C0C0689
:1031E0000C038C01CC006C00FC009C018C030C03D4
:1031F0000C060C0C000000000000000000000000A5
:103200000000C000C000C000C000C000C000C0007E
:10321000C000C000C000C000C000C000C000C000AE
:10322000C000C0000000000000000000000000001E
:103230000000000000000000000000007C3CFF7E59
:10324000C7E383C183C183C183C183C183C183C1F8
:1032500083C183C1000000000000000000000000E6
:103260000000000000000000000000009807F80FB8
:10327000381C1818181818181818181818181818AA
:1032800018181818000000000000000000000000DE
:10329000000000000000000000000000C003F00F6C
:1032A000300C181818181818181818181818300C86
:1032B000F00FC0030000000000000000000000004C
:1032C000000000000000000000000000D803F80F1C
:1032D000380C181818181818181818181818380C46
:1032E000F80FD80318001800180018001800000084
:1032F000000000000000000000000000C01BF01FE4
:10330000301C181818181818181818181818301C05
:10331000F01FC01B0018001800180018001800004B
:10332000000000000000000000000000B007F003F3
:1033300070003000300030003000300030003000CD
:10334000300030000000000000000000000000001D
:10335000000000000000000000000000E003F00397
:10336000380E180C3800F003C007000C180C380E8B
:10337000F007E00300000000000000000000000073
:10338000000000008000C000C000C000F007F0078F
:10339000C000C000C000C000C000C000C000C0002D
:1033A000C0078007000000000000000000000000CF
:1033B00000000000000000000000000018181818AD
:1033C0001818181818181818181818181818381C59
:1033D000F01FE019000000000000000000000000E5
:1033E0000000000000000000000000000C18180C95
:1033F000180C180C300630063006600360036003BA
:10340000C001C0010000000000000000000000003A
:10341000000000000000000000000000C141C141A8
:10342000C3616363636363633636363636361C1CAA
:103430001C1C1C1C0000000000000000000000001C
:103440000000000000000000000000001C38381CD4
:10345000300C600660036003600360036006300C9C
:10346000381C1C38000000000000000000000000B4
:1034700000000000000000000000000018303018BC
:1034800030187018600C600CE00CC006C006800399
:103490008003800380018001C001F0007000000003
:1034A000000000000000000000000000FC1FFC1FE6
:1034B000000C000600038001C0006000300018000E
:1034C000FC1FFC1F000000000000000000000000C6
:1034D000000000038001C000C000C000C000C000A8
:1034E000C00060006000300060004000C000C0000C
:1034F000C000C000C000C000800100030000000048
:103500000000800180018001800180018001800134
:1035100080018001800180018001800180018001A3
:103520008001800180018001800180018001000014
:1035300000006000C000C0018001800180018001A6
:1035400080010003000300060003000180018001E8
:103550008001800180018001C00060000000000047
:10356000000000000000000000000000000000005B
:10357000F010F81F080F000000000000000000001D
:10358000000000000000000000000000000000003B
:10359000000000000000000000000000000000002B
:1035A000400040004000400040004000000040005B
:1035B000A000A000A000000000000000000000002B
:1035C000000024002400FE004800FC0048004800E1
:1035D0003800540050003800140014005400380023
:1035E0004400A800A800500014001A002A0024007B
:1035F000100028002800100074004C004C0030001F
:10360000100010001000000000000000000000008A
:10361000080010001000100010001000100008003A
:10362000100008000800080008000800080010004A
:1036300000000000240018003C00180024000000D6
:1036400000000000100010007C00100010000000BE
:10365000000000000000000000000800080010004A
:1036600000000000000000003C000000000000001E
:10367000000000000000000000000000180018001A
:1036800008000800080010001000200020002000A2
:103690001800240024002400240024002400180022
:1036A00008001800280008000800080008000800AA
:1036B00038004400000004000800100020007C00D6
:1036C000180024000400180004000400240018005E
:1036D00004000C001400240044007E0004000400D8
:1036E0003C002000200038000400040024001800E2
:1036F00018002400200038002400240024001800B2
:103700003C00040008000800080010001000100031
:1037100018002400240018002400240024001800AD
:1037200018002400240024001C00040024001800B9
:103730000000000010000000000010000000000069
:103740000000000008000000000008001000000059
:103750000000000004001800200018000400000011
:103760000000000000003C0000003C0000000000E1
:1037700000000000200018000400180020000000D5
:1037800018002400040008001000100000001000C1
:103790003C0042009900A500A5009D0042003800B1
:1037A00038004400440044007C00440044004400CD
:1037B000780044004400780044004400440078004D
:1037C0001C002200420040004000420022001C0079
:1037D0007000480044004400440044004800700069
:1037E0007C00400040007C004000400040007C0025
:1037F0003C00200020003800200020002000200095
:103800001C002200420040004E00420022001C002A
:103810004400440044007C00440044004400440050
:103820001000100010001000100010001000100018
:103830000400040004000400040024002400180014
:103840004400480050007000500048004800440008
:1038500020002000200020002000200020003C004C
:103860008200C600C600AA00AA00AA00AA00920010
:1038700042006200520052004A004A0046004200E4
:1038800018002400420042004200420024001800B8
:1038900078004400440044007800400040004000AC
:1038A0001800240042004200420042002C001A008E
:1038B0007800440044007800500048004400420072
:1038C0003800440040003800040044004400380040
:1038D0007C001000100010001000100010001000FC
:1038E0004200420042004200420042002400180010
:1038F0004400440028002800280028002800100068
:103900009200AA00AA00AA00AA00AA00AA004400E5
:103910004200240024001800180024002400420063
:1039200044002800280010001000100010001000B3
:103930007C000400080010001000200040007C0003
:103940001C001000100010001000100010001C00DF
:10395000100010000800080008000800040004001F
:103960001C000400040004000400040004001C0007
:1039700010002800440000000000000000000000CB
:103980000000000000000000000000000000000037
:1039900020001000100000000000000000000000E7
:1039A00000000000180004001C00240024001C007B
:1039B00020002000280034002400240034002800C7
:1039C000000000001800240020002000240018003F
:1039D0000400040014002C00240024002C00140017
:1039E00000000000180024003C0020002400180003
:1039F0000000180010001000180010001000100047
:103A000000001800240024001800040024001800FE
:103A1000200020002800340024002400240024007A
:103A20001000000010001000100010001000100026
:103A30000800000008000800080008002800100026
:103A4000200020002400280030002800240024004A
:103A500010001000100010001000100010001000E6
:103A600000000000A600DA0092009200920092008E
:103A7000000000002800340024002400240024005A
:103A80000000000018002400240024002400180076
:103A9000000028003400240038002000200020000E
:103AA000000014002C0024001C000400040004008A
:103AB000000000002C00300020002000200020002A
:103AC0000000000018002400100008002400180066
:103AD0000000100038001000100010001000180046
:103AE0000000000024002400240024002C00140006
:103AF00000000000440044002800280028001000B6
:103B0000000000009200AA00AA00AA00AA00440037
:103B100000000000440028001000100028004400AD
:103B200000002800280028001000100010001000DD
:103B3000000000003C0004000800100020003C00D1
:103B40000000080010001000200010001000080005
:103B500010001000100010001000100010001000E5
:103B60000000100008000800040008000800100011
:103B7000000000000000600092000C000000000047
:103B8000FF00FF00FF00FF00FF00FF00FF00FF003D
:103B90002DE9F04F81B00446002600F082FE002897
:103BA0006ED0204600F082FE5FEA000868D0C8F3BD
:103BB000C00048B1DFF80414096809682046884746
:103BC000E168082048610126C8F3001018B12046BA
:103BD00000F04EFD0643C8F3401018B1204600F037
:103BE00053F80643C8F3806018B1204600F0D9F8B6
:103BF0000643C8F3406038B300270025204600F094
:103C000063FE8346207804F190094FF0010AD0B199
:103C10000AFA07F11FFA8BF008420ED0D9F800001B
:103C20000068C0F3C03000283946204602D000F0BA
:103C300063FB01E000F0C4F9054320787F1C874254
:103C400009F10409E4D32E43C8F3006018B12046FB
:103C500000F035F90643C8F3407050B1D749096800
:103C6000896820468847E1684FF00050486146F077
:103C70000106C8F3405018B1204600F084FD064309
:103C8000304601B0BDE8F08FFEB50400E068C06AC0
:103C900000900198C0F3C30014EB4010D0F8A008C6
:103CA000C01C80080600009880B2B6B280B286427E
:103CB00075D20198C0F3C30014EB4010D0F8A008EF
:103CC00000286CD0009880B2800007000198C0F3F3
:103CD000C30014EB4010D0F8A008BFB2B84210D215
:103CE0000198C0F3C30014EB4010D0F8A0080700FF
:103CF0000020050055F02005E0688069A843E168D0
:103D000088610198C0F3C30014EB4010D0F8A008FC
:103D1000C01C800806003B009BB20198C0F3C302A0
:103D2000D2B20198C0F3C30014EB4010D0F89C1835
:103D3000200000F03DFD0198C0F3C30014EB4010DB
:103D40000199C1F3C30114EB4111D1F89C18BFB222
:103D50007918C0F89C180198C0F3C30014EB401008
:103D60000199C1F3C30114EB4111D1F8A018BFB2FE
:103D7000C91BC0F8A0180198C0F3C30014EB401091
:103D80000199C1F3C30114EB4111D1F8A41811FA40
:103D900087F1C0F8A418E068C06A009083E70120AA
:103DA000FEBDF0B583B00400606900690090019821
:103DB000C0F3C30014EB4010D0F8A008C01C80086A
:103DC0000600009880B2B6B280B2864275D20198E1
:103DD000C0F3C30014EB4010D0F8A00800286CD04A
:103DE000009880B2800007000198C0F3C30014EB74
:103DF0004010D0F8A008BFB2B84210D20198C0F36A
:103E0000C30014EB4010D0F8A00807000020050004
:103E100055F08065E0688069A843E1688861019891
:103E2000C0F3C30014EB4010D0F8A008C01C8008F9
:103E300006003B009BB20198C0F3C302D2B20198C6
:103E4000C0F3C30014EB4010D0F89C18200000F021
:103E5000AFFC0198C0F3C30014EB40100199C1F30B
:103E6000C30114EB4111D1F89C18BFB27918C0F806
:103E70009C180198C0F3C30014EB40100199C1F3E2
:103E8000C30114EB4111D1F8A018BFB2C91BC0F88F
:103E9000A0180198C0F3C30014EB40100199C1F3BE
:103EA000C30114EB4111D1F8A41811FA87F1C0F83D
:103EB000A41860690069009083E70120FEBD2DE928
:103EC000F84304005FF000085FF0000900200700DD
:103ED0000020050000200600D4F8CC000068050092
:103EE000D4F8CC000068060036F0040636F002066E
:103EF00036F0080636F02006C5F34000002808D04A
:103F000056F0020620002D4909684968884759F093
:103F10000109C5F3C00000283CD056F00806C5F3DF
:103F20008000002836D02000244909684968884765
:103F3000C5F34140022803D0C5F34140012827D1F1
:103F4000606900680700C5F34140022811D141F2C1
:103F500070706169486017F0030002281AD0207A57
:103F6000022803D10221200000F0A5FC0120804698
:103F700010E04BF680306169486017F003000128BB
:103F800008D00121200000F096FC0120804601E0CD
:103F900001208046C5F34010002803D056F02006CB
:103FA00059F00109B8F1000F02D0200000F08FFC99
:103FB000D4F8CC0006604846BDE8F28394020020A5
:103FC0002DE9F84304000D0014EB8500D0F89000B3
:103FD0000700B8688146F868060016EA090914EB7C
:103FE0008500D0F8900000688046C9F38000002862
:103FF00012D00021080050F00400B86014EB8501D5
:10400000D1F89010C968080050F0020014EB850147
:10401000D1F89010C8606CE1C9F34010002805D0B9
:104020000021080050F02000B86062E1C9F3402090
:10403000002817D014EB8501D1F89010C96808004A
:1040400050F0020014EB8501D1F89010C8602900EF
:10405000C9B2200000F056FC0021080050F40070A6
:10406000B86046E15FEAC97020D5002014EB8501F5
:10407000C1F8F80714EB8501D1F89010C968080061
:1040800050F0020014EB8501D1F89010C8602900AF
:10409000C9B2200000F036FC0021080050F00100F9
:1040A000B8600120291981F8700822E1C9F3C00025
:1040B00000281BD00021080050F00800B86014EB65
:1040C0008501D1F89010C968080050F0020014EB87
:1040D0008501D1F89010C8602900C9B2200000F015
:1040E00011FC0520291981F8700802E1C9F30010BC
:1040F000002820D0002014EB8501C1F8F80714EB4C
:104100008501D1F89010C968080050F0020014EB46
:104110008501D1F89010C8602900C9B2200000F0D4
:10412000F1FB0021080050F01000B86003202919AD
:1041300081F87008DDE0C9F3C010002824D014EB2A
:104140008501D1F89010C968080050F0020014EB06
:104150008501D1F89010C8602900C9B2200000F094
:10416000D1FB14EB8500D0F8F807401C14EB850157
:10417000C1F8F8070620291981F870080021080005
:1041800050F08000B860B4E0C9F38010002820D05F
:10419000002014EB8501C1F8F80714EB8501D1F874
:1041A0009010C968080050F0020014EB8501D1F8A6
:1041B0009010C8602900C9B2200000F0A3FB0021C4
:1041C000080050F04000B8600420291981F87008F8
:1041D0008FE0C9F38020002820D014EB8501D1F8AE
:1041E0009010C968080050F0020014EB8501D1F866
:1041F0009010C8602900C9B2200000F083FB0021A4
:10420000080050F01000B8600820291981F87008E3
:104210000021080050F48060B8606AE0C9F34000F3
:10422000002866D014EB8501D1F89010C968080009
:1042300030F0020014EB8501D1F89010C860281905
:1042400090F87008012812D10120291981F87F08FF
:10425000C8F38140022847D114EB451090F8A90813
:1042600090F0010014EB451181F8A9083CE02819F1
:1042700090F87008032804D10220291981F87F08DA
:1042800032E0281990F8700804280FD114EB45107B
:1042900090F89408012804D12900C9B2200000F048
:1042A00052FB0220291981F87F081DE0281990F897
:1042B0007008052804D10420291981F87F0813E02B
:1042C000281990F8700806280ED114EB8500D0F854
:1042D000F807032808D10320291981F87F08002056
:1042E00014EB8501C1F8F8070021080050F0020026
:1042F000B8600120BDE8F2832DE9F04704000D000D
:1043000014EB8500D0F890008146D9F80800824669
:10431000D9F80C00060016EA0A0A14EB8500D0F85A
:1043200090000068070000200600CAF38000002803
:1043300013D00021080050F00400C9F8080014EB65
:104340008501D1F89010C968080050F0020014EB04
:104350008501D1F89010C86059E0CAF340100028D8
:1043600006D00021080050F02000C9F808004EE0F7
:10437000CAF3C000002824D014EB8501D1F89010B6
:10438000C968080050F0020014EB8501D1F89010C4
:10439000C8600520291981F870080021080050F034
:1043A0001000C9F808000021080050F00800C9F802
:1043B00008003AF0100A2900C9B2200000F0A2FA61
:1043C00025E0CAF38020002821D014EB8501D1F824
:1043D0009010C968080050F0020014EB8501D1F874
:1043E0009010C8602900C9B2200000F08BFA0021AB
:1043F000080050F01000C9F808000820291981F8B9
:1044000070080021080050F48060C9F80800CAF361
:104410004020002818D014EB8501D1F89010C9680D
:10442000080050F0020014EB8501D1F89010C8602C
:104430002900C9B2200000F065FA0021080050F4FC
:104440000070C9F8080010E15FEACA705FD5E07833
:10445000012811D114EB8500D0F890000069804646
:1044600014EB4510D0F8A0085FEA4831490B401A18
:1044700014EB8501C1F834080120291981F870086E
:10448000002014EB8501C1F8F8070021080050F066
:104490000100C9F80800C7F38140002803D0C7F322
:1044A0008140022822D114EB8501D1F89010C9680F
:1044B000080050F0020014EB8501D1F89010C8609C
:1044C0002900C9B2200000F01DFA0021080050F0B8
:1044D0001000C9F8080014EB451090F8A80890F0F7
:1044E000010014EB451181F8A808BEE0C7F3814034
:1044F000032840F0BA8057F0005714EB8500D0F83D
:10450000900007600120291981F87F08ADE0CAF307
:104510004000002849D014EB8501D1F89010C968FB
:10452000080030F0020014EB8501D1F89010C8604B
:10453000281990F87008012804D10120291981F860
:104540007F082BE0281990F87008052804D1042072
:10455000291981F87F0821E0281990F870080628A9
:1045600004D0281990F87008082809D1002014EB0D
:104570008501C1F8F8070320291981F87F080DE0AB
:10458000C7F38140032809D114EB451090F8A8081F
:1045900090F0010014EB451181F8A80800210800F3
:1045A00050F00200C9F808005FE0CAF3C01000280C
:1045B00025D014EB8501D1F89010C968080050F09F
:1045C000020014EB8501D1F89010C86014EB85004F
:1045D000D0F8F807401C14EB8501C1F8F807062055
:1045E000291981F870082900C9B2200000F08AF961
:1045F0000021080050F08000C9F8080035E0CAF337
:104600000010002831D0C7F38140032812D114EBE9
:104610008501D1F89010C968080050F0020014EB31
:104620008501D1F89010C8602900C9B2200000F0BF
:1046300069F910E0C7F38140002803D0C7F3814037
:10464000022808D157F0004737F0804714EB850067
:10465000D0F8900007600320291981F87008002124
:10466000080050F01000C9F808000120BDE8F087EC
:104670002DE9F843040000208DF80000002080465A
:1046800058F01008E068806930EA0800E168886145
:10469000E068006A050015F00F008DF800009DF835
:1046A0000000C0B214EB8000D0F890000068070052
:1046B000C5F3434002285BD1C5F30A10012856DB3D
:1046C0009DF8000014EB4010D0F89C0800284ED054
:1046D000C5F30A1292B29DF8000014EB4010D0F816
:1046E0009C18200000F090F815F00F0014EB40101B
:1046F00015F00F0114EB4111D1F89C18C5F30A1203
:104700005118C0F89C1815F00F0014EB401015F06C
:104710000F0114EB4111D1F8A418C5F30A12511876
:10472000C0F8A4189DF8000014EB4010D0F8A408BD
:1047300081469DF8000014EB8000C0F834989DF885
:104740000000C0B214EB8000D0F8900000690600B1
:10475000C6F3C94001280ADB57F0004737F080470D
:104760009DF8000014EB8000D0F890000760FFE790
:1047700058F01008E068806958EA0000E168886134
:104780000120BDE8F2830100D1F890000068030029
:1047900053F0004353F08043D1F8900003600020B1
:1047A000020052F40012C868426101207047000004
:1047B00090F803C0BCF1000F24D1DB1C4FEA630C5E
:1047C00000EB820003EB9C739B10D0F8D00019D053
:1047D00013F0030200F0068051F804CBC0F800C0CB
:1047E000521EF9D19A080DD051F8043B0360521EB5
:1047F00051F8043B036051F8043B036051F8043B5B
:104800000360F1D10020704703460846D11C4A10CE
:1048100001EB92718910D3F8D02019D011F0030365
:1048200000F00680D2F800C040F804CB5B1EF9D13E
:1048300089080DD0136840F8043B491E136840F8FE
:10484000043B136840F8043B136840F8043BF1D183
:104850007047000000B581B000220092009A42F03B
:1048600020020092009A61F38A120092C0680099B7
:104870000161DFF8AC1402690092491E1EBF009A64
:10488000C2F34012002AF6D1032000F055FA0020AE
:1048900001B000BDC068406900F0010080F0010077
:1048A0007047C068406900F001007047C068416906
:1048B00080690840704740690268920801F003016E
:1048C00041EA82010160704740694069704730B534
:1048D000044681B0D4F8CC00006820F02E0040F4EB
:1048E0008075D4F8CC0005600A2000F035FAD4F8C1
:1048F000CC1025F480700860142000F02DFA0120FF
:1049000001B030BD85B0002200EB8101029200921F
:10491000D1F890100A6842F04042C2F38143002B64
:1049200018BF022B03D1C068C06A029002E0406940
:1049300000690090C0F3074008B9520052080A60AD
:10494000002005B0704700EB8100DFF8DC13D0F8E1
:1049500090201161D0F89000016821F0804141F071
:104960000041016000207047006980684008002114
:1049700000F0030003280AD8DFE800F0020508056C
:104980000321084670470221084670470121084666
:104990007047000001698A6880690368520802F064
:1049A0000302032A09D8DFE802F002020502DB0A4B
:1049B000DB0202E0032262F30A030360486840F46A
:1049C000807048600020704730B44A780B78012A24
:1049D00000EB830205D10124926904FA03F39BB230
:1049E00004E00124526D04FA03F31B041468C4F3B9
:1049F000C035ADB9DFF834532C408D686D0554EAED
:104A00005554CD78C988AD0405F4402589052C435B
:104A100001F07071214341F0805141F40041116077
:104A20000069C1691943C161002030BC70470000B2
:104A3000F0B40A784C6900EB82034A78012A74D1F9
:104A40009D692A682D6905F0604614B946F4002472
:104A500011E08D6867032C19641EB4FBF5F4DFF8D0
:104A6000C45205EAC44456EA5736CD783443012D82
:104A700008BF65F35E749B691C61C378012B06D186
:104A80000B780C6900EB83039B695C610CE0CB78CD
:104A9000012B0CD04B693BB103695C6B91F9006051
:104AA0000125B5402C435C63CB78012B07D103690A
:104AB0009B68DB0554BF42F0005242F080520B78F5
:104AC00000EB830342F004429B691A60CA78012A12
:104AD00002BFCA68C378002B5FD18B8A0978DB1CC0
:104AE0005C1000EB810003EB94739B10D0F8D000B6
:104AF00053D013F0030104D052F8044B0460491E54
:104B0000FAD1990800F0498052F8043B0360491E2D
:104B100052F8043B036052F8043B036052F8043B34
:104B20000360F1D1F0BC002070475D6D2A682E69EA
:104B30008D683CB906F060446D0354EA553444F482
:104B400000240EE02C19641EB4FBF5F4754F6FF3CE
:104B5000DC4607EAC4443443C4F3C946754365F3ED
:104B600012045B6D1C61C378012B05D10B780C69B5
:104B700000EB83035B6D5C61CB78012B06D14B7935
:104B8000002B14BF42F0005242F08052097800EB33
:104B9000810042F00441406D01600020F0BC70478C
:104BA000F0B482B0002200924A784C69012A3CD1CC
:104BB000826913681569009534B92C465C4D2C4008
:104BC00044F40024009411E08D68A54205D24D61A3
:104BD000009C65F30604009403E0009D64F3060561
:104BE00000950124009D64F3D4450095009C146158
:104BF000C478012C05D10C780D6900EB8404A469FC
:104C0000656143F004431360C278A2BB4A6992B362
:104C10000069426B91F90010012303FA01F111437D
:104C2000416302B0F0BC002070470A78404F00EBAF
:104C30008202556D2B682D690095009E8D683E405F
:104C400005F07F073E4346F4002604B14D6100960F
:104C5000526D009C1461C278012A05D10A780C6952
:104C600000EB8202526D5461097800EB810043F041
:104C70000441406D016002B0F0BC002070470000AC
:104C80004A780978012A00EB81000AD1806901681D
:104C9000CA0F08D041F0804141F4001101600020AA
:104CA0007047406D016841F40011016000207047B9
:104CB0004A78012A0A7800EB82000CBF8069406DB7
:104CC0000268C97822F40012032914BF022942F0B5
:104CD000805202600020704700698169C069084005
:104CE000000C704700EB8101496D896800694069DB
:104CF0000840704700698169C069084080B2704708
:104D0000426D0C491161C178012908D1426D00F250
:104D1000CC515161406D01684FF0802101607047B6
:104D2000410D03000000F81F0000088000F833FC6C
:104D300080FFE7FF180008C081B000210091C0EBA0
:104D40000011C8000721B0FBF1F00099491C88420E
:104D50000091FAD201B0704781B00021009106495C
:104D600048430721B0FBF1F00099491C88420091AB
:104D7000FAD201B070470000C0D4010070470000B3
:104D80002DE9F04381B004464FF00009FFF782FDA2
:104D9000002800F06E812046FFF788FD050000F036
:104DA0006881C5F3C04018B1204600F0D0F98146B3
:104DB000C5F3804020B1204600F05FF940EA0909C0
:104DC000C5F3400010B1E16802204861E80F19D036
:104DD000A07A30B1D4F80C01D4F80C11800880000E
:104DE0000860206941684908490041602046DFF8B1
:104DF0000814096889698847E1684FF000404861F4
:104E000049F00109DFF8F063C5F3C02080B300204A
:104E10008DF8000094F812018DF8000020463168EA
:104E20004969884720698068E2684FF400615161F0
:104E3000A17AD9B1C00719D594F81501012804BF8A
:104E40009DF80000032811D1D4F80C01016841F04D
:104E500001010160D4F80C01016841F00301016017
:104E6000DFF89803016841F00601016049F001098B
:104E7000C5F3C00040B13168C96820468847E16881
:104E80000820486149F00109C5F3001000283BD013
:104E9000E068816921F010018161E068D0F820802C
:104EA00008F00F0000EB800104EBC10000F55D7716
:104EB0004FEA584000F00F0002280CD006281CD101
:104EC000082204F2CC512046FFF79EFCB869C8F3D3
:104ED0000A11081810E04FEA181040050DD0F968C3
:104EE000C8F30A122046FFF78FFCF968C8F30A10CE
:104EF0004118F960B9694018B861E068816941F00A
:104F00001001816149F00109C5F30030002854D037
:104F10002069416849084900416020460021FFF7A7
:104F200099FC627800215FF0FF003AB304EB810244
:104F3000491C93699860526D9060627891421DD2CD
:104F400004EB8102491C93699860526D906062780D
:104F5000914213D204EB8102491C93699860526D0F
:104F600090606278914209D204EB8102491C9369F6
:104F70009860526D906062789142D7D321694FF06A
:104F8000FF3088614FF001102169C8610B20216951
:104F90004861216908612069016821F4FE610160AE
:104FA0002046FFF7ADFEE1684FF48050486120468F
:104FB00031680969884749F00109C5F3403008B3F1
:104FC0002046FFF7E7FCE068C06820F470572046F1
:104FD000FFF7CAFC032807D10020A0704FF400702F
:104FE000A08047F4105005E00120A0704020A08070
:104FF00047F4A050E168C8604FF40050E168486190
:1050000049F00109C5F3005048B13168C96920462B
:105010008847E1684FF48010486149F00109C5F301
:10502000405048B13168096A20468847E1684FF42A
:105030000010486149F00109C5F3807048B131683A
:10504000496A20468847E1684FF08040486149F04E
:105050000109C5F3800060B1E0684568C5F38000D0
:1050600018B13168896A20468847E068456049F090
:105070000109484601B0BDE8F0832DE9F0478246BA
:105080000025FFF737FE06000AF11807DFF86881F0
:105090004FF0010958D0F00751D5DAF81000016936
:1050A000436BEAB20AEB820423FA02F2A469D4F851
:1050B00008C002F0010241EAC21101EA0C04E10752
:1050C0001BD5416B09FA05F291434163012439680C
:1050D000C1F80890E9B2D8F80020526850469047CD
:1050E0009AF80300012808BF002D06D19AF8110193
:1050F000042804BF5046FFF703FEC4F3C00010B1FC
:10510000396808248C60C4F3001010B13968102489
:105110008C60C4F3801010B1396840248C60C4F3F3
:10512000400010B1396802248C60C4F3C01030B163
:105130002946504600F064F83968802088606D1C6C
:10514000760807F10407A6D10120BDE8F0872DE914
:10515000F04782460025FFF7BFFD06000AF154071D
:105160000AF55F78DFF8909042D0F00739D5E9B2C0
:105170005046FFF7B7FD0446E00721D53868012403
:1051800084609AF80310012907D10069D8F800104B
:105190004003B1EB5030C8F81000E9B2D9F8002054
:1051A0001268504690479AF80300012808BF002D66
:1051B00006D19AF81101052804BF5046FFF7A0FD5B
:1051C000C4F3400010B1396802248C60C4F3C000FD
:1051D00038B1D9F8001089685046884739680820E6
:1051E00088606D1C76083F1D002E08F12808BCD190
:1051F0000120BDE8F08700009002002010ED00E0E3
:105200002DE9F0438046894609EB890008EBC00090
:1052100000F58E7681B07069B169B468401A844235
:1052200088BF0446E01C850808EB890713E0B468D2
:10523000401A844288BF0446E01C8508F168A3B286
:105240005FFA89F24046FFF7B3FAF0682018F06081
:10525000B0692018B061B869806980B285423EBFEC
:105260007069B169814201D20028E0D1012001B00A
:10527000BDE8F08330B581B00446487809282BD8C2
:10528000DFE800F07BB52A902A0B052A6B38204610
:1052900000F068F9002001B030BD8888002804BF04
:1052A000C888002818D1887800F07F0594F812018A
:1052B000032811D084F814512946204600F0CDFA75
:1052C000204600F0F7FA002D14BF0220012084F8D8
:1052D000120101B0002030BD8021204600F07DFA8F
:1052E0000021204600F079FA2046FFF709FD002052
:1052F00001B030BDDFF8B8534888287028780228FC
:10530000EADA94F8121102291BD00329E4D150B92A
:10531000022084F812010021002084F810012046A8
:1053200000F0FBFB74E094F810118842204670D026
:1053300000F0F3FB297884F81011204600F0E1FB1F
:1053400066E0002864D084F81001032184F812116B
:105350000146204600F0D5FB5AE0C8880128BBD1A1
:1053600094F81201022805D00328B5D1012204F5D2
:10537000887111E00122CF490EE094F81201801EDD
:105380000128A9D8CA4D00206860D4F8180108B1D6
:10539000022068600222291D204600F066FA0020E3
:1053A00001B030BD488801282BD0022802BF888870
:1053B000C1B200292FD121694968000A401E042882
:1053C0000FD8DFE800F00B0907050300052006E011
:1053D000042004E0032002E0022000E0012060F34A
:1053E0000611B5480160012084F8160110E094F818
:1053F0001201801E01283FF66FAF488801280AD1AC
:105400000020C4F818012046D4F8E425926890479B
:10541000204600F04FFA002001B030BD30B5044600
:1054200081B094F8120103280D460FD12879022883
:105430000CDAD4F8E425926820469047E88880B9D1
:10544000204600F037FA002001B030BD8021204610
:1054500000F0C3F90021204600F0BFF92046FFF715
:105460004FFC002001B030BD30B50D4681B06978E9
:1054700004462879032972D8DFE801F03619710251
:1054800094F81211022936D003295DD1698839B9FF
:10549000002818BF802803D00146204600F09DF95F
:1054A000D4F8E425926829462046904716E094F8FF
:1054B000121102291FD0032946D1698800294ED133
:1054C000002818BF802809D00146204600F0A5F921
:1054D000D4F8E4259268294620469047204600F0FB
:1054E000E9F9002001B030BD94F81211022902D070
:1054F00003290BD028E0002818BF80282FD00146B0
:10550000204600F06AF9002001B030BD02066B4968
:1055100008D500F07F0000EB800204EBC20090F899
:105520001E0105E000EB800204EBC20090F8760358
:10553000421E9241D243D20F0A602046022200F05E
:1055400094F9002001B030BD8021204600F045F9DB
:105550000021204600F041F92046FFF7D1FB002052
:1055600001B030BD30B50D4681B004466888010AEF
:10557000491E062900F28E80DFE801F004153D8CFB
:105580008C6F8200D4F8EC25A078126800A99047AF
:10559000E98840291CBF94F81211012919D108216A
:1055A000ADF8001018E0D4F8E425A078926A00A9BC
:1055B0009047A278012A04BF217A012905D1D4F8A5
:1055C000E425D26A00A90120904702214170C4F865
:1055D000F005BDF8001061B1E98851B1BDF80020B7
:1055E0008A4288BF0A460146ADF80020204600F0F6
:1055F0003CF901B030BDC0B205284BD8DFE800F05F
:10560000030A11181F26D4F8EC25A078526800A9C7
:105610009047DEE7D4F8EC25A078926800A990477F
:10562000D7E7D4F8EC25A078D26800A99047D0E756
:10563000D4F8EC25A078126900A99047C9E7D4F8FE
:10564000EC25A078526900A99047C2E7D4F8EC2570
:10565000A078926900A99047BBE7A078D0B9D4F8A8
:10566000E425926A00A99047014615488A7B027199
:10567000CA7B4271097C81710A21ADF80010ABE749
:10568000A07838B9D4F8E425D26A00A99047072158
:1056900041709EE78021204600F09FF800212046BF
:1056A00000F09BF82046FFF72BFB01B030BD000057
:1056B000A4180020AC180020D4180020D81800200E
:1056C0006402002090F8CC250A7090F8CD254A702D
:1056D00090F8CF3590F8CE2502EB03224A8090F85F
:1056E000D13590F8D02502EB03228A8090F8D3358B
:1056F00090F8D22502EB0322CA80C988C0F8401175
:10570000012180F81111704730B501F07F0404EBDE
:10571000840500EBC5040D064CBF04F58E7404F53A
:105720005D7481B001F07F052570C9096170A260C8
:10573000E370617809B12178E180022B04BF002178
:1057400021712146FFF740F9002001B030BD30B58E
:1057500001F07F0404EB840500EBC50404F55D74DF
:1057600081B0E260636101F07F010023A361637097
:105770002170C178012908BF2261217800292146C2
:1057800004D1FFF70DFA002001B030BDFFF750F94A
:10579000002001B030BD30B501F07F0404EB84057A
:1057A00000EBC50404F58E7481B00125657001F02D
:1057B0007F012170E26022610021A1616361217893
:1057C0000029214604D1FFF7EBF9002001B030BDDC
:1057D000FFF72EF9002001B030BD00B50B0681B0F7
:1057E00008D501F07F0202EB820300EBC30202F551
:1057F0008E7205E001EB810300EBC30202F55D72DE
:105800000123937001F07F031370C9095170114691
:10581000FFF736FA002001B000BD00B50B0681B0DD
:1058200008D501F07F0202EB820300EBC30202F510
:105830008E7205E001EB810300EBC30202F55D729D
:105840000023937001F07F031370C9095170114652
:10585000FFF72EFA002001B000BD006902680901BF
:1058600001F4FE6111430160704700B581B0C0F8DA
:105870003C21C0F83821022380F8113113460A4632
:105880000021FFF788FF002001B000BD00B51346DE
:105890000A4681B00021FFF77EFF002001B000BD65
:1058A00000B513460A4681B00021FFF750FF0020E3
:1058B00001B000BD10B50446042084F81101002297
:1058C000002311462046FFF766FF2046FFF718FA2F
:1058D000002010BD10B50446052084F811010022F7
:1058E000002311462046FFF732FF2046FFF708FA53
:1058F000002010BD10B582B0044600A9FFF7E2FEFB
:105900009DF8000010F01F0003D002280FD007D32D
:1059100014E000A92046FFF7ADFC002002B010BD46
:1059200000A92046FFF77AFD002002B010BD00A9B3
:105930002046FFF799FD002002B010BD9DF8000041
:1059400000F080012046FFF748FF002002B010BDA4
:1059500010B5044659BB94F81111032904F55D7084
:1059600030D1C16982688A4211D2891AC161E37853
:10597000012B02D1C368D318C360914238BF0A46D5
:10598000C16892B22046FFF78BFF002010BDD4F80B
:10599000E4050169080005D094F81201032804BF4A
:1059A000204688472046FFF785FF002010BDD4F829
:1059B000E4058269100005D094F81201032804BFA1
:1059C00020469047002010BD30B5002981B0044624
:1059D00045D194F81101022804F58E7531D1E8699A
:1059E000A96881420DD2421AEA61E078012802D109
:1059F000E8680818E86092B2E9682046FFF746FFB9
:105A00001FE0286AB0FBF1F201FB12025AB988428A
:105A100009D3696A884206D200212046FFF736FF83
:105A2000002068620DE0D4F8E405C168080005D0E4
:105A300094F81201032804BF204688472046FFF748
:105A400049FF94F81601012814D10C480068216917
:105A50004860002084F8160101B0002030BDD4F861
:105A6000E4054269100005D094F81201032804BF30
:105A700020469047002001B030BD0000D41800201F
:105A800010B50446002340220021FFF73DFE00230D
:105A9000402280212046FFF737FE012084F81201C2
:105AA000D4F8E815A07849688847002010BD10B5E3
:105AB0000446D4F8E8050069804794F8130184F897
:105AC0001201032084F81201002010BD00B581B03E
:105AD00090F8121180F81311042180F81211D0F8F7
